{
  "contractName": "Farming",
  "abi": [
    {
      "constant": true,
      "inputs": [
        {
          "name": "",
          "type": "bytes32"
        }
      ],
      "name": "jobs",
      "outputs": [
        {
          "name": "budget",
          "type": "uint256"
        }
      ],
      "payable": false,
      "stateMutability": "view",
      "type": "function"
    },
    {
      "inputs": [],
      "payable": false,
      "stateMutability": "nonpayable",
      "type": "constructor"
    },
    {
      "constant": false,
      "inputs": [
        {
          "name": "jobId",
          "type": "bytes32"
        }
      ],
      "name": "submitJob",
      "outputs": [],
      "payable": true,
      "stateMutability": "payable",
      "type": "function"
    },
    {
      "constant": true,
      "inputs": [
        {
          "name": "jobId",
          "type": "bytes32"
        }
      ],
      "name": "getJobBudget",
      "outputs": [
        {
          "name": "",
          "type": "uint256"
        }
      ],
      "payable": false,
      "stateMutability": "view",
      "type": "function"
    },
    {
      "constant": false,
      "inputs": [
        {
          "name": "jobId",
          "type": "bytes32"
        },
        {
          "name": "farmerId",
          "type": "bytes32"
        },
        {
          "name": "reward",
          "type": "uint256"
        }
      ],
      "name": "submitReward",
      "outputs": [],
      "payable": false,
      "stateMutability": "nonpayable",
      "type": "function"
    },
    {
      "constant": true,
      "inputs": [
        {
          "name": "jobId",
          "type": "bytes32"
        },
        {
          "name": "farmerId",
          "type": "bytes32"
        }
      ],
      "name": "getRewardBalance",
      "outputs": [
        {
          "name": "",
          "type": "uint256"
        }
      ],
      "payable": false,
      "stateMutability": "view",
      "type": "function"
    },
    {
      "constant": false,
      "inputs": [
        {
          "name": "jobId",
          "type": "bytes32"
        },
        {
          "name": "farmerId",
          "type": "bytes32"
        }
      ],
      "name": "claimReward",
      "outputs": [],
      "payable": true,
      "stateMutability": "payable",
      "type": "function"
    }
  ],
  "bytecode": "0x608060405234801561001057600080fd5b506103d7806100206000396000f300608060405260043610610078576000357c0100000000000000000000000000000000000000000000000000000000900463ffffffff1680633543610f1461007d57806338ed7cfc146100d05780634cba21ef146101155780638b13e85b1461015a578063b22697a71461017e578063e17347d9146101c7575b600080fd5b34801561008957600080fd5b506100ba600480360381019080803560001916906020019092919080356000191690602001909291905050506101f9565b6040518082815260200191505060405180910390f35b3480156100dc57600080fd5b506100ff600480360381019080803560001916906020019092919050505061023a565b6040518082815260200191505060405180910390f35b34801561012157600080fd5b506101446004803603810190808035600019169060200190929190505050610258565b6040518082815260200191505060405180910390f35b61017c600480360381019080803560001916906020019092919050505061027f565b005b34801561018a57600080fd5b506101c560048036038101908080356000191690602001909291908035600019169060200190929190803590602001909291905050506102a4565b005b6101f7600480360381019080803560001916906020019092919080356000191690602001909291905050506102ea565b005b600080600084600019166000191681526020019081526020016000206000016000836000191660001916815260200190815260200160002054905092915050565b60006020528060005260406000206000915090508060010154905081565b60008060008360001916600019168152602001908152602001600020600101549050919050565b3460008083600019166000191681526020019081526020016000206001018190555050565b6000806000856000191660001916815260200190815260200160002090508181600001600085600019166000191681526020019081526020016000208190555050505050565b60008060008085600019166000191681526020019081526020016000209150816000016000846000191660001916815260200190815260200160002054905060008260000160008560001916600019168152602001908152602001600020819055508082600101600082825403925050819055503373ffffffffffffffffffffffffffffffffffffffff166108fc829081150290604051600060405180830381858888f193505050501580156103a4573d6000803e3d6000fd5b50505050505600a165627a7a7230582027ee90c0ce3be24d5525ae89b9ed4a080c37c55ea85f5d1a43382d6cd0c70b210029",
  "source": "pragma solidity ^0.4.24;\r\n\r\ncontract Farming {\r\n    mapping(bytes32 => Job) public jobs;\r\n\r\n    struct Job {\r\n        mapping(bytes32 => uint) rewards;\r\n        uint budget;\r\n    }\r\n\r\n    constructor () public {\r\n    }\r\n\r\n    function submitJob(bytes32 jobId) public payable{\r\n        jobs[jobId].budget = msg.value;\r\n    }\r\n\r\n    function getJobBudget(bytes32 jobId) public view returns(uint) {\r\n        return jobs[jobId].budget;\r\n    }\r\n\r\n    function submitReward(bytes32 jobId, bytes32 farmerId, uint reward) public {\r\n        Job storage job = jobs[jobId];\r\n        job.rewards[farmerId] = reward;\r\n    }\r\n\r\n    function getRewardBalance(bytes32 jobId, bytes32 farmerId) public view returns(uint) {\r\n        return jobs[jobId].rewards[farmerId];\r\n    }\r\n\r\n    function claimReward(bytes32 jobId, bytes32 farmerId) public payable{\r\n        Job storage job = jobs[jobId];\r\n        uint reward = job.rewards[farmerId];\r\n        job.rewards[farmerId] = 0;\r\n        job.budget -= reward;\r\n        msg.sender.transfer(reward);\r\n    }\r\n}\r\n",
  "sourcePath": "D:\\Development\\EnvironmentA\\farming-protocol\\examples\\utils\\farming_contract\\contracts\\Farming.sol",
  "compiler": {
    "name": "solc",
    "version": "0.4.24+commit.e67f0147.Emscripten.clang"
  },
  "schemaVersion": "2.0.0",
  "updatedAt": "2018-08-23T21:48:47.727Z"
}